{
  "contractName": "SupplyChain",
  "abi": [
    {
      "constant": true,
      "inputs": [
        {
          "name": "_pku",
          "type": "uint256"
        }
      ],
      "name": "getOrders",
      "outputs": [
        {
          "name": "",
          "type": "string"
        },
        {
          "name": "",
          "type": "uint256"
        },
        {
          "name": "",
          "type": "address"
        },
        {
          "name": "",
          "type": "address"
        },
        {
          "name": "",
          "type": "address[]"
        },
        {
          "name": "",
          "type": "address"
        },
        {
          "name": "",
          "type": "uint8"
        }
      ],
      "payable": false,
      "stateMutability": "view",
      "type": "function"
    },
    {
      "constant": false,
      "inputs": [
        {
          "name": "_drugname",
          "type": "string"
        },
        {
          "name": "_drugid",
          "type": "uint256"
        },
        {
          "name": "_ShippingCompany",
          "type": "address"
        },
        {
          "name": "_distributor",
          "type": "address"
        }
      ],
      "name": "CreateOrder",
      "outputs": [],
      "payable": false,
      "stateMutability": "nonpayable",
      "type": "function"
    },
    {
      "constant": false,
      "inputs": [
        {
          "name": "_distributor",
          "type": "address"
        },
        {
          "name": "_pku",
          "type": "uint256"
        }
      ],
      "name": "addDistributor",
      "outputs": [],
      "payable": false,
      "stateMutability": "nonpayable",
      "type": "function"
    },
    {
      "constant": false,
      "inputs": [
        {
          "name": "_Pharmacy",
          "type": "address"
        },
        {
          "name": "_pku",
          "type": "uint256"
        }
      ],
      "name": "addPharmacy",
      "outputs": [],
      "payable": false,
      "stateMutability": "nonpayable",
      "type": "function"
    },
    {
      "constant": false,
      "inputs": [
        {
          "name": "_pku",
          "type": "uint256"
        }
      ],
      "name": "PharmacyUpdateOrder",
      "outputs": [],
      "payable": false,
      "stateMutability": "nonpayable",
      "type": "function"
    },
    {
      "constant": false,
      "inputs": [
        {
          "name": "_pku",
          "type": "uint256"
        }
      ],
      "name": "ShippingStarts",
      "outputs": [],
      "payable": false,
      "stateMutability": "nonpayable",
      "type": "function"
    },
    {
      "constant": false,
      "inputs": [
        {
          "name": "_pku",
          "type": "uint256"
        }
      ],
      "name": "ShippingEnds",
      "outputs": [],
      "payable": false,
      "stateMutability": "nonpayable",
      "type": "function"
    }
  ],
  "bytecode": "0x60806040526000805534801561001457600080fd5b50610f4f806100246000396000f300608060405260043610610083576000357c0100000000000000000000000000000000000000000000000000000000900463ffffffff16806305e0141d1461008857806312ebd2511461022b57806365fa014314610258578063a7ade36f14610285578063bf1545ac146102d2578063c7a0a20314610385578063f268cd9d146103b2575b600080fd5b34801561009457600080fd5b506100b3600480360381019080803590602001909291905050506103ff565b60405180806020018881526020018773ffffffffffffffffffffffffffffffffffffffff1673ffffffffffffffffffffffffffffffffffffffff1681526020018673ffffffffffffffffffffffffffffffffffffffff1673ffffffffffffffffffffffffffffffffffffffff168152602001806020018573ffffffffffffffffffffffffffffffffffffffff1673ffffffffffffffffffffffffffffffffffffffff16815260200184600481111561016757fe5b60ff16815260200183810383528a818151815260200191508051906020019080838360005b838110156101a757808201518184015260208101905061018c565b50505050905090810190601f1680156101d45780820380516001836020036101000a031916815260200191505b50838103825286818151815260200191508051906020019060200280838360005b838110156102105780820151818401526020810190506101f5565b50505050905001995050505050505050505060405180910390f35b34801561023757600080fd5b50610256600480360381019080803590602001909291905050506106e0565b005b34801561026457600080fd5b506102836004803603810190808035906020019092919050505061078d565b005b34801561029157600080fd5b506102d0600480360381019080803573ffffffffffffffffffffffffffffffffffffffff1690602001909291908035906020019092919050505061083a565b005b3480156102de57600080fd5b50610383600480360381019080803590602001908201803590602001908080601f016020809104026020016040519081016040528093929190818152602001838380828437820191505050505050919291929080359060200190929190803573ffffffffffffffffffffffffffffffffffffffff169060200190929190803573ffffffffffffffffffffffffffffffffffffffff1690602001909291905050506109ca565b005b34801561039157600080fd5b506103b060048036038101908080359060200190929190505050610bdb565b005b3480156103be57600080fd5b506103fd600480360381019080803573ffffffffffffffffffffffffffffffffffffffff16906020019092919080359060200190929190505050610c88565b005b606060008060006060600080610413610df3565b600160008a815260200190815260200160002060e06040519081016040529081600082018054600181600116156101000203166002900480601f0160208091040260200160405190810160405280929190818152602001828054600181600116156101000203166002900480156104cb5780601f106104a0576101008083540402835291602001916104cb565b820191906000526020600020905b8154815290600101906020018083116104ae57829003601f168201915b50505050508152602001600182015481526020016002820160009054906101000a900473ffffffffffffffffffffffffffffffffffffffff1673ffffffffffffffffffffffffffffffffffffffff1673ffffffffffffffffffffffffffffffffffffffff1681526020016003820160009054906101000a900473ffffffffffffffffffffffffffffffffffffffff1673ffffffffffffffffffffffffffffffffffffffff1673ffffffffffffffffffffffffffffffffffffffff1681526020016004820180548060200260200160405190810160405280929190818152602001828054801561060f57602002820191906000526020600020905b8160009054906101000a900473ffffffffffffffffffffffffffffffffffffffff1673ffffffffffffffffffffffffffffffffffffffff16815260200190600101908083116105c5575b505050505081526020016005820160009054906101000a900473ffffffffffffffffffffffffffffffffffffffff1673ffffffffffffffffffffffffffffffffffffffff1673ffffffffffffffffffffffffffffffffffffffff1681526020016005820160149054906101000a900460ff16600481111561068c57fe5b600481111561069757fe5b815250509050806000015181602001518260400151836060015184608001518560a001518660c00151869650829250975097509750975097509750975050919395979092949650565b803373ffffffffffffffffffffffffffffffffffffffff166001600083815260200190815260200160002060030160009054906101000a900473ffffffffffffffffffffffffffffffffffffffff1673ffffffffffffffffffffffffffffffffffffffff1614151561075157600080fd5b60036001600084815260200190815260200160002060050160146101000a81548160ff0219169083600481111561078457fe5b02179055505050565b803373ffffffffffffffffffffffffffffffffffffffff166001600083815260200190815260200160002060050160009054906101000a900473ffffffffffffffffffffffffffffffffffffffff1673ffffffffffffffffffffffffffffffffffffffff161415156107fe57600080fd5b60046001600084815260200190815260200160002060050160146101000a81548160ff0219169083600481111561083157fe5b02179055505050565b8060008060009150600090505b60016000848152602001908152602001600020600401805490508110156108ff573373ffffffffffffffffffffffffffffffffffffffff1660016000858152602001908152602001600020600401828154811015156108a257fe5b9060005260206000200160009054906101000a900473ffffffffffffffffffffffffffffffffffffffff1673ffffffffffffffffffffffffffffffffffffffff1614156108f257600191506108ff565b8080600101915050610847565b6001151582151514151561091257600080fd5b600180600086815260200190815260200160002060050160146101000a81548160ff0219169083600481111561094457fe5b0217905550600160008581526020019081526020016000206004018590806001815401808255809150509060018203906000526020600020016000909192909190916101000a81548173ffffffffffffffffffffffffffffffffffffffff021916908373ffffffffffffffffffffffffffffffffffffffff160217905550505050505050565b8360016000806000815460010191905081905581526020019081526020016000206000019080519060200190610a01929190610e7e565b508260016000805481526020019081526020016000206001018190555033600160008054815260200190815260200160002060020160006101000a81548173ffffffffffffffffffffffffffffffffffffffff021916908373ffffffffffffffffffffffffffffffffffffffff16021790555081600160008054815260200190815260200160002060030160006101000a81548173ffffffffffffffffffffffffffffffffffffffff021916908373ffffffffffffffffffffffffffffffffffffffff1602179055506000600160008054815260200190815260200160002060050160006101000a81548173ffffffffffffffffffffffffffffffffffffffff021916908373ffffffffffffffffffffffffffffffffffffffff1602179055506000600160008054815260200190815260200160002060050160146101000a81548160ff02191690836004811115610b5557fe5b021790555060016000805481526020019081526020016000206004018190806001815401808255809150509060018203906000526020600020016000909192909190916101000a81548173ffffffffffffffffffffffffffffffffffffffff021916908373ffffffffffffffffffffffffffffffffffffffff1602179055505050505050565b803373ffffffffffffffffffffffffffffffffffffffff166001600083815260200190815260200160002060030160009054906101000a900473ffffffffffffffffffffffffffffffffffffffff1673ffffffffffffffffffffffffffffffffffffffff16141515610c4c57600080fd5b60026001600084815260200190815260200160002060050160146101000a81548160ff02191690836004811115610c7f57fe5b02179055505050565b8060008060009150600090505b6001600084815260200190815260200160002060040180549050811015610d4d573373ffffffffffffffffffffffffffffffffffffffff166001600085815260200190815260200160002060040182815481101515610cf057fe5b9060005260206000200160009054906101000a900473ffffffffffffffffffffffffffffffffffffffff1673ffffffffffffffffffffffffffffffffffffffff161415610d405760019150610d4d565b8080600101915050610c95565b60011515821515141515610d6057600080fd5b846001600086815260200190815260200160002060050160006101000a81548173ffffffffffffffffffffffffffffffffffffffff021916908373ffffffffffffffffffffffffffffffffffffffff160217905550600180600086815260200190815260200160002060050160146101000a81548160ff02191690836004811115610de757fe5b02179055505050505050565b60e0604051908101604052806060815260200160008152602001600073ffffffffffffffffffffffffffffffffffffffff168152602001600073ffffffffffffffffffffffffffffffffffffffff16815260200160608152602001600073ffffffffffffffffffffffffffffffffffffffff16815260200160006004811115610e7857fe5b81525090565b828054600181600116156101000203166002900490600052602060002090601f016020900481019282601f10610ebf57805160ff1916838001178555610eed565b82800160010185558215610eed579182015b82811115610eec578251825591602001919060010190610ed1565b5b509050610efa9190610efe565b5090565b610f2091905b80821115610f1c576000816000905550600101610f04565b5090565b905600a165627a7a7230582077b236c4a1a2ef83793e890d94a213aa1a2bcd1d5bd1102374abcd0d387470da0029",
  "source": "pragma solidity ^0.4.25;\r\n\r\ncontract SupplyChain{\r\n  \r\n \r\n    uint pku=0;\r\n    enum Status{ OrderCreated,Distribution,ShippingStarts,ShippingEnds,Pharmacy\r\n}\r\nmodifier onlyDistributor(uint _pku){\r\n    bool exists=false;\r\n   \r\n    for(uint i=0;i<track[_pku].Distributor.length;i++){\r\n        if(track[_pku].Distributor[i]==msg.sender){\r\n            exists=true;\r\n            break;\r\n        }\r\n    }\r\n    require(exists==true);\r\n    _;\r\n}\r\nmodifier onlyPharmacy(uint _pku){\r\n    require(track[_pku].Pharmacy==msg.sender);\r\n    _;\r\n}\r\nmodifier onlyShippingCompany(uint _pku){\r\n    require(track[_pku].ShippingCompany==msg.sender);\r\n    _;\r\n}\r\nstruct Order{\r\n    //orderid\r\n    string DrugName;\r\n    uint256 DrugID;\r\n    address Manufacturer;\r\n    address ShippingCompany;\r\n    address[] Distributor;//array of distributors\r\n    address Pharmacy;\r\n   // address Customer;\r\n    Status status;\r\n}\r\nmapping(uint=>Order) track;\r\nOrder[]   orders;\r\n\r\nfunction getOrders(uint256 _pku) public view returns(string,uint256,address,address,address[],address,Status){\r\n    Order memory order=track[_pku];\r\n    return(order.DrugName,order.DrugID,order.Manufacturer,order.ShippingCompany,order.Distributor,order.Pharmacy,order.status);\r\n}\r\nfunction CreateOrder(string _drugname,uint256 _drugid,address _ShippingCompany,address _distributor) public  {\r\n   \r\n            \r\n         //  track[++pku]=Order(_drugname,_drugid,msg.sender,_ShippingCompany,_distributor,0x0,Status.OrderCreated);\r\n            //   Order memory order;\r\n            //   order.DrugName=_drugname;\r\n            //   order.DrugID=_drugid;\r\n            //   order.Manufacturer=msg.sender;\r\n            //   order.ShippingCompany=_ShippingCompany;\r\n            //   order.Pharmacy=0x0;\r\n            //   order.status=Status.OrderCreated;\r\n            //   orders.push(order);\r\n            //   orders[orders.length-1].Distributor.push(_distributor);\r\n            //   track[++pku]=order;\r\n            track[++pku].DrugName=_drugname;\r\n            track[pku].DrugID=_drugid;\r\n            track[pku].Manufacturer=msg.sender;\r\n            track[pku].ShippingCompany=_ShippingCompany;\r\n            track[pku].Pharmacy=0x0;\r\n            track[pku].status=Status.OrderCreated;\r\n            track[pku].Distributor.push(_distributor);\r\n}\r\n\r\n\r\nfunction addDistributor(address _distributor,uint _pku) public onlyDistributor(_pku){\r\n    \r\n     track[_pku].status=Status.Distribution;\r\n     track[_pku].Distributor.push(_distributor);\r\n}\r\nfunction addPharmacy(address _Pharmacy,uint _pku) public onlyDistributor(_pku){\r\n    \r\n     track[_pku].Pharmacy=_Pharmacy;\r\n     track[_pku].status=Status.Distribution;\r\n     \r\n     \r\n}\r\n\r\nfunction PharmacyUpdateOrder(uint _pku) public onlyPharmacy(_pku){\r\n     \r\ntrack[_pku].status=Status.Pharmacy; \r\n}\r\n\r\nfunction ShippingStarts(uint _pku) public onlyShippingCompany(_pku){\r\n\r\ntrack[_pku].status=Status.ShippingStarts;\r\n}\r\nfunction ShippingEnds(uint _pku) public onlyShippingCompany(_pku){\r\n\r\ntrack[_pku].status=Status.ShippingEnds;\r\n}\r\n\r\n}",
  "sourcePath": "C:\\Users\\Welcome\\Desktop\\kyd\\contracts\\altered.sol",
  "compiler": {
    "name": "solc",
    "version": "0.4.25+commit.59dbf8f1.Emscripten.clang"
  },
  "schemaVersion": "3.0.23",
  "updatedAt": "2020-02-08T13:19:49.311Z",
  "devdoc": {
    "methods": {}
  },
  "userdoc": {
    "methods": {}
  }
}